:020000040800F2
:10000000E81000209D010008CB100008750F0008C3
:10001000C9100008A90200087912000800000000B9
:10002000000000000000000000000000BD110008FA
:10003000AB02000800000000CD100008BF1100084E
:10004000B7010008B7010008B7010008B7010008B0
:10005000B7010008B7010008B7010008B7010008A0
:10006000B7010008B7010008B7010008B701000890
:10007000B7010008B7010008B7010008B701000880
:10008000B7010008B7010008B7010008B701000870
:10009000B7010008B7010008B7010008B701000860
:1000A000B7010008B7010008B7010008B701000850
:1000B000B7010008B7010008B7010008B701000840
:1000C000B7010008B7010008B7010008B701000830
:1000D000B7010008B7010008B7010008B701000820
:1000E000B7010008B7010008B7010008B701000810
:1000F000B7010008B7010008B7010008B701000800
:10010000B7010008B7010008B7010008B7010008EF
:10011000B7010008B7010008B7010008B7010008DF
:10012000B7010008B7010008B7010008B7010008CF
:10013000B7010008B7010008B7010008B7010008BF
:10014000B7010008B7010008B7010008B7010008AF
:10015000B7010008B7010008B7010008B70100089F
:10016000B7010008B7010008B7010008B70100088F
:10017000B7010008B7010008B7010008000000003F
:10018000B7010008B7010008DFF80CD000F07AF8DA
:1001900000480047BD140008E810002006488047CA
:1001A00006480047FEE7FEE7FEE7FEE7FEE7FEE75C
:1001B000FEE7FEE7FEE7FEE75D12000889010008A2
:1001C0002DE9F05F0546002092469B46884606468C
:1001D000814640241BE0284641464746224600F01F
:1001E00041F853465A46C01A914110D31146184659
:1001F000224600F028F82D1A67EB01084F462246E8
:100200000120002100F01FF817EB00094E41201ECD
:10021000A4F10104DFDC484631462A464346BDE8E6
:10022000F09FD2B201E000F8012B491EFBD27047CB
:100230000022F6E710B513460A4604461946FFF7B2
:10024000F0FF204610BD202A04DB203A00FA02F11C
:10025000002070479140C2F1200320FA03F31943B4
:1002600090407047202A04DB203A21FA02F0002156
:10027000704721FA02F3D040C2F1200291400843B6
:1002800019467047064C074D06E0E06840F0010350
:1002900094E8070098471034AC42F6D3FFF778FF94
:1002A0002415000844150008FEE7704770B5B3F543
:1002B000804F05D06FF0704140F82210002070BDD3
:1002C00050F82240084B8E891C40D1E9003543EAA2
:1002D00005138D6889692D0245EA06452B430B43BA
:1002E000234340F82230E9E70000F0CFF0B50C6876
:1002F00050F82430114A1340D1E90125D1E90367B0
:100300002A433E4332434E6932438E693243CE69BB
:1003100032430E6A32434E6A32438E6A3243CE6AA9
:100320003243CE6B096B32430A431A43082D01D185
:1003300042F0400240F824200020F0BD8000F0FF91
:1003400030B500EB820250688D8900F04043D1E95E
:10035000000440EA04108C68240244EA0544204367
:100360000C8A074D05EB045420430C7D6D0105EB11
:10037000046489692043084318435060002030BD5D
:100380000000F0FF70B5044600F042F90546601C1D
:1003900002D004480078044400F03AF9401BA0421F
:1003A000FAD370BD08000020F0B587B0142168466C
:1003B000FFF73EFF1F480168002939D1012404607E
:1003C0001D48016841F0010101600068022500F04C
:1003D000010005904FF23F00CDE9000502AA032677
:1003E0000C2782E8D0006946144800F02FF840F24C
:1003F0003F40CDE9000502AA694682E8D0001048D6
:1004000000F024F84FF68370CDE9000502AA694692
:1004100082E8D0000B4800F019F84FF63370CDE9B0
:10042000000502AA694682E8D000074800F00EF8ED
:1004300007B0F0BD00000020383802400014024030
:100440000018024000100240000C02402DE9F84F55
:1004500000224FF0010803254FF00F0E0B6808FA39
:1004600002F42340A3426ED14E68012E05D0022E25
:1004700003D0112E01D0122E12D186684FEA420C01
:1004800005FA0CF7BE43CF6807FA0CF737438760CD
:100490004668A6430C79C4F3001494403443446086
:1004A000C668570005FA07FC8C6826EA0C06BC40B3
:1004B0003443C4604C68022C01D0122C13D1D408F0
:1004C00000EB8404A346D4F8209054074FEAD46A82
:1004D0000EFA0AF629EA06090E6906FA0AF646EA4B
:1004E0000906CBF8206006680C7926EA0C0604F0B1
:1004F0000304BC40344304604C68E40065D5364CCA
:10050000266846F480462660246822F0030604F438
:1005100080440094314C3444A446D4F808489607EB
:10052000370F0EFA07F6B4432D4EB04201D1002624
:1005300024E02C4EB04201D101261FE02A4EB042E9
:1005400002D102261AE040E0284EB04201D1032633
:1005500014E0274EB04201D104260FE0254EB042F0
:1005600001D105260AE0244EB04201D1062605E05D
:10057000224EB04201D1072600E00826BE402643A5
:10058000CCF808681E4E34684F689C43FF0300D5C2
:100590001C4334601A4C241D26684F689E43BF03D9
:1005A00000D51E432660164E083634684F689C43BB
:1005B000FF0200D51C433460114E0C3634684F687E
:1005C0009C43BF0200D51C433460521C102AFFF428
:1005D00045AFBDE8F88F00004438024000300140CC
:1005E000000002400004024000080240000C0240EB
:1005F000001002400014024000180240001C02409B
:10060000003C01400AB1816170470904FBE700002A
:100610000148806870470000080000200248816897
:100620000278114481607047080000200B4810B523
:10063000016841F400710160016841F4806101606A
:10064000016841F480710160032000F061F800202E
:1006500000F006F800F024F8002010BD003C024035
:1006600070B50D4D04464FF47A712878B1FBF0F067
:100670000A490968B1FBF0F000F068FC48B9102C99
:1006800007D200222146501E00F022F800206C60A4
:1006900070BD012070BD0000080000201400002083
:1006A0000A4808B5016841F480410160006800F41F
:1006B000804000900548001F016841F080510160B2
:1006C000006800F08050009008BD000044380240EF
:1006D000F0B40E4B1B680C46C3F30223C3F10705AD
:1006E000042D00D90425191D072901D2002300E09B
:1006F000DB1E012606FA05F1491E214099409E4065
:10070000761E16403143F0BC00F0B8BE0CED00E0A0
:10071000064900F0070208684FF6FF03184040EA58
:100720000220034A10430860704700000CED00E00F
:100730000000FA052DE9F0470E46050065D0DFF808
:100740001481D8F80000F7B200F00F00B04207D2D1
:1007500088F80070D8F8000000F00F00B04254D1C3
:1007600028683D4C810712D5400703D5206840F426
:10077000E05020602878000703D5206840F46040EE
:1007800020602068A96820F0F000084320602878E5
:10079000C0072DD0304968680839012812D00228D6
:1007A00013D0032811D00968890700292DDA2168A0
:1007B00021F0030101432160FFF72AFF814641F246
:1007C000883A0EE009688903EFE709688901ECE7D8
:1007D000FFF71EFFA0EB0901514502D90320BDE838
:1007E000F0872068696800F00C00B0EB810FEFD152
:1007F000D8F80010404601F00F01B14207D9077048
:10080000006800F00F00B04201D00120E7E728782F
:10081000400705D52068E96820F4E05008432060CF
:100820002878000706D52068296920F4604040EA4E
:10083000C100206000F018F82168084AC1F30311D4
:10084000515CC8400649086006480068FFF708FF89
:100850000020C4E7003C024008380240121500089E
:10086000140000200C000020154810B5006810F09E
:100870000C02144813D01449042A0FD0082A0ED1B0
:100880000F4C241F2268236802F03F025B0207D549
:100890002068C0F38810A0FB010106E0084610BDE7
:1008A0002168C1F38811A1FB00010023FFF788FC38
:1008B0002168C1F30141491C4900B0FBF1F010BDB2
:1008C000083802400024F40040787D012DE9F84FFB
:1008D00004006ED02078DFF83C93C007A9F104052E
:1008E0004AD009F104000168C1F38101012908D04F
:1008F0000068C0F3810002280AD1D9F80000400244
:1009000006D52868800337D560680028E1D033E039
:100910006068B0F5803F10D0B0F5A02F286810D0E7
:1009200020F480302860286820F4802028606068E7
:10093000A8B1FFF76DFE06460DE0286840F4803050
:10094000F4E740F480202860F7E700BFFFF760FE7F
:10095000801B642873D828688003F7D50CE0FFF764
:1009600057FE064605E000BFFFF752FE801B6428D5
:10097000F0D828688003F7D42078DFF89C828007BD
:100980004FF0000A3ED5A348001D016811F00C0F7E
:1009900008D00068C0F3810002280BD1D9F800000C
:1009A000400207D42868800716D5E068012800D1E6
:1009B00012E02BE1E068B8B10120C8F80000FFF7B1
:1009C00027FE064605E000BFFFF722FE801B022837
:1009D000C0D828688007F7D52868216920F0F8007A
:1009E00040EAC10028600DE0C8F800A0FFF710FE43
:1009F000064604E0FFF70CFE801B02281FD828687B
:100A00008007F7D42078000722D5824E8348616999
:100A1000703671B101210160FFF7FAFD074604E06D
:100A2000FFF7F6FDC01B022809D830688007F7D50C
:100A30000EE0C0F800A0FFF7EBFD074605E082E0FE
:100A4000FFF7E6FDC01B02287DD830688007F7D489
:100A50002078400768D5DFF8BCB100270BF13C0BCC
:100A6000DBF80000C0000BD4DBF8001041F080512F
:100A7000CBF80010DBF80000012700F08050009058
:100A8000674E3068C00510D4306840F48070306024
:100A9000FFF7BEFD009005E0FFF7BAFD0099401A90
:100AA000022850D83068C005F6D55A4EA0686C367A
:100AB00001280FD00528306810D020F001003060E8
:100AC000306820F004003060A068B8B1FFF7A0FDE6
:100AD00000900FE0306840F00100F4E740F00400BF
:100AE0003060F7E7FFF794FD0099411A41F2883032
:100AF000814266D830688007F4D50EE0FFF788FDA4
:100B0000009007E0FFF784FD0099411A41F2883018
:100B1000814256D830688007F4D42FB1DBF800103A
:100B200021F08051CBF80010A069C8B33949091DE4
:100B30000968C1F3810102294AD00228504607D032
:100B4000C8F8600000E03CE0FFF762FD04463BE0CF
:100B50004746C8F86000FFF75BFD064605E000BFAA
:100B6000FFF756FD801B02282BD828688001F7D498
:100B7000D4E907010843A16A2A4A490802EB014166
:100B8000626A41EA8211084394F82C1040EA01613C
:100B9000C9F8001001203866FFF73AFD044606E068
:100BA00036E000BFFFF734FD001B022809D8286893
:100BB0008001F7D52CE000BFFFF72AFD001B0228BB
:100BC00002D90320BDE8F88F28688001F4D41FE023
:100BD0000128F7D0D9F80000E26900F480019142C1
:100BE00014D1226A00F03F0191420FD147F6C07143
:100BF000626A0140914209D1A26A00F440319142F7
:100C000004D1E16A00F07060884201D00120D9E788
:100C10000020D7E70438024000004742800E4742D8
:100C2000007000400000FFFF70B5040005D00025F3
:100C3000A56294F8510010B106E0012070BD84F85F
:100C40005050204600F030F8022084F8510020680F
:100C5000016821F040010160D4E901010843D4E9B1
:100C600003121143084361690843218B01F40071A9
:100C70000843E1690843216A0843A16A08432168DF
:100C80000860A069042101EA1040616A08432168F4
:100C900048602068C16921F40061C1616565012077
:100CA00084F85100002070BD10B586B004461421B0
:100CB0006846FFF7BDFA13492068884220D11248E0
:100CC0000021026842F480520260006800F4805003
:100CD00005900D481438026842F001020260006875
:100CE00000F001000590E02000900220CDE9010114
:100CF000032003900520049069460448FFF7A6FBF3
:100D000006B010BD003001404438024000000240EF
:100D10002DE9F84F044690F8500000270A9E1D4622
:100D200092468B464FF0010901280ED0012084F82D
:100D30005000FFF76DFC804694F85100616801286F
:100D40000CD0B1F5827F07D102E00220BDE8F88F18
:100D5000A16809B9042801D00227C2E0BBF1000F45
:100D600027D0BAF1000F24D01DB394F85100042805
:100D700002D0052084F8510000206065C4F838A036
:100D8000E587A587C4F830B0E586A5862064606451
:100D900020680168490603D4016841F04001016000
:100DA000E068B0F5006F606805D0E8B3012D46D06B
:100DB0007FE0012795E008B1012D39D1206B216832
:100DC0000088C860206B801C2063E08E401EE08697
:100DD0002EE02068816889070FD5E18E69B1B9F1ED
:100DE000010F0AD1216B0988C160206B801C206330
:100DF000E08E401EE0864FF0000920688168C90738
:100E00000CD0E18F51B1C068A16B0880A06B801C31
:100E1000A063E08F401EE0874FF00109FFF7F8FB69
:100E2000A0EB0800B04200E009E001D3701C50D1F3
:100E3000E08E0028CDD1E08F0028CAD13FE0206BA2
:100E4000216800780873206B401C2063E08E401EF0
:100E5000E0862EE02068816889070FD5E18E69B1B0
:100E6000B9F1010F0AD1216B09780173206B401C85
:100E70002063E08E401EE0864FF000092068816804
:100E8000C9070CD0E18F51B1C068A16B0870A06B8D
:100E9000401CA063E08F401EE0874FF00109FFF780
:100EA000B7FBA0EB0800B04202D3701C01D010E0E9
:100EB0007EB1E08E0028CDD1E08F0028CAD1424615
:100EC0003146204600F004F928B101272020606552
:100ED00007E0032705E0A06818B92068C1688068AA
:100EE0000090012084F85100002084F8500038461A
:100EF0002CE770B515460E46040003D094F849005F
:100F000010B107E0012070BD002084F848002046A1
:100F100000F01AF804F108012068FFF7E7F93146FC
:100F2000A2682068FFF70CFAD4E901022946236B76
:100F3000FFF7BCF9A168206850F8212042F00102B7
:100F400040F82120002070BDFFF72EBA10B5401EDA
:100F5000B0F1807F01D3012010BD4FF0E02460612B
:100F60000F21601700F08AFA0020A061072020619D
:100F7000002010BDFEE7000010B588B01C216846B7
:100F8000FFF756F916484FF0204104220160154939
:100F9000C0E9011200211023C160C0E9041381617E
:100FA000C16194020162C0E90914C1620163416335
:100FB000816341640F20CDE9002002AC142084E855
:100FC0000D001120CDE90501002269460448FFF714
:100FD00090FF002801D072B6FEE708B010BD0000F7
:100FE00070000020040100A030B587B014216846CD
:100FF000FFF71EF921480024016841F0200101603B
:10100000016801F020010591016841F08001016053
:10101000016801F080010591016841F00101016062
:10102000016801F001010591016841F04001016092
:10103000016801F040010591016841F01001016073
:10104000016801F010010591016841F0080101609B
:1010500000680B4D00F00800059001221021284681
:10106000FFF7D0FA102000900120CDE90104694675
:1010700028460394FFF7EAF907B030BD3038024044
:10108000000002400F4810B50D4901604FF4827115
:10109000416000218160C1604FF400720161C0E9CC
:1010A00005121022C0E90721416281620A21C16252
:1010B000FFF7BAFD002801D072B6FEE710BD0000B0
:1010C0000030014018000020FEE7FEE770470000F6
:1010D00038B504461248134B0068B0FBF3F04FF4E8
:1010E0007A73584300906068B0F5827F0DD10B464B
:1010F000009200228021204600F016F870B1606D49
:1011000040F020006065032038BD009830B1401EDB
:10111000009020688068C0430006F6D5002038BDE6
:101120001400002000366E012DE9F0411D461746DF
:101130000E460446DDF8188008E0681C06D0FFF76C
:1011400067FAA0EB0800A8420BD255B1206880686E
:1011500036EA000030D00020B842EED10020BDE8D1
:10116000F0812068416821F0E00141606068B0F5DD
:10117000827F0BD1A068B0F5004F02D0B0F5806F30
:1011800004D12068016821F040010160A06AB0F537
:10119000005F09D12068016821F4005101602068D6
:1011A000016841F400510160012084F851000020E1
:1011B00084F850000320D2E70120CDE77047FFF705
:1011C0002DBA000030B593B030216846FFF730F8F3
:1011D00014210CA8FFF72CF81E480025016841F0E7
:1011E00080510160006800F0805011901A48016839
:1011F00041F4804101600068022400F480401190B5
:1012000001200090000401908001CDE906401920E2
:1012100008904FF48C70CDE9090404200B906846C7
:10122000FFF754FB08B172B6FEE70CA90F2081E866
:1012300031004FF4A0500F904FF4805010900421D3
:101240000CA8FFF777FA002801D072B6FEE713B0BA
:1012500030BD000040380240007000400548016881
:1012600041F47001016003494FF00060803908606B
:101270007047000088ED00E0FEE700002DE9F04136
:10128000344C012684F8276002E00120FFF77AF849
:10129000FFF7BEF96428F8D300F05EF887B20821A2
:1012A000A7F580470025042202234801113F0A2F99
:1012B0004BD2DFE807F02825221F1B1713100A0561
:1012C0000A2121704FF4806103E0092121704FF45D
:1012D0000071E16119E02170E06116E007212170E1
:1012E0008021F6E7062121704021F2E705212170D7
:1012F0002021EEE722701021EBE703222270E8E7BD
:101300002370E26101E02670E36160814FF4805157
:101310002161E169090161610903B1FBF0F0E0605D
:101320004FF48030A061880A206200F06FF801203D
:1013300000F036F8022000F033F8032000F030F817
:1013400084F827500120BDE8F08184F82750002060
:10135000F9E70000C00000202DE9F0410F4E002207
:1013600010213046FFF74EF99F2000F077F8A520B6
:1013700000F074F80546A52000F070F80446A5209A
:1013800000F06CF80746012210213046FFF73AF9C9
:10139000280440EA04203843BDE8F0810000024000
:1013A00070B5184E0446002210213046FFF72AF986
:1013B000154D012C11D0022C19D0152000F04EF83B
:1013C000A52000F04BF8044685F8260001221021E4
:1013D0003046FFF717F9204670BD052000F03EF8B3
:1013E000A52000F03BF8044685F82400EEE7352000
:1013F00000F034F8A52000F031F8044685F8250007
:10140000E4E7000000000240C000002070B5114D6C
:10141000002210212846FFF7F5F84B2000F01EF8B7
:101420000024A52000F01AF8641CE4B2042CF8D3C0
:10143000094E0024A52000F011F83119641CE4B213
:101440004870082CF6D32846BDE8704001221021D0
:10145000FFF7D8B800000240C000002001B582B0FC
:101460000A200090012301AA02A90348FFF750FCBB
:101470009DF804000EBD0000180000200907090EA9
:10148000002804DB00F1E02080F80014704700F031
:101490000F0000F1E02080F8141D704702E008C83A
:1014A000121F08C1002AFAD170477047002001E0DE
:1014B00001C1121F002AFBD17047000008B5FFF7D9
:1014C000B5F8FFF77FFEFFF78FFDFFF755FDFFF73C
:1014D000D9FDFFF7D3FE4FF0D0444FF480512046A2
:1014E000FEF7A6FE0020014600904FF4802000BFCA
:1014F00044F82110491C8142FAD3002154F82120DC
:101500008A4202D0009A521C0092491C8142F5D3B3
:10151000FEE70000000000000000010203040607CF
:101520000809000044150008000000201800000011
:101530009C1400085C15000818000020D010000062
:10154000AC140008000000000000000001000000D2
:0C15500010000000000000000024F40067
:040000050800018965
:00000001FF
