:020000040800F2
:10000000681000201D100008F90F0008FB0F000801
:10001000FD0F0008FF0F000801100008000000009D
:1000200000000000000000000000000003100008B5
:100030000510000800000000071000080910000863
:10004000491000084D100008511000085510000814
:10005000591000085D1000086110000865100008C4
:10006000691000086D100008711000087510000874
:10007000791000087D100008811000088510000824
:10008000891000088D1000089110000895100008D4
:10009000991000089D100008A1100008A510000884
:1000A000A9100008AD100008B1100008B510000834
:1000B000B9100008BD100008C1100008C5100008E4
:1000C000C9100008CD100008D1100008D510000894
:1000D000D9100008DD100008E1100008E510000844
:1000E000E9100008ED100008F1100008F5100008F4
:1000F000F9100008FD1000080111000805110008A2
:10010000091100080D11000811110008151100084F
:10011000191100081D1100082111000825110008FF
:10012000291100082D1100083111000835110008AF
:10013000391100083D11000841110008451100085F
:10014000491100084D11000851110008551100080F
:10015000591100085D1100086111000865110008BF
:10016000691100086D11000871110008751100086F
:10017000791100087D1100088111000800000000BD
:1001800085110008891100082DE9F843040016D0F4
:100190002078DFF80863C10713D5B06800F00C00C1
:1001A000042807D0B06800F00C0008283ED1706821
:1001B00041023BD53068810303D56068002800F018
:1001C000FF802078B64F810719D5B06810F00C0F6A
:1001D00007D0B06800F00C0008285CD170684102BC
:1001E00059D43068810703D5E068012840F0E880E1
:1001F0003168206921F0F80141EAC00131602178BD
:1002000008076CD56069A749002862D001220A60FE
:1002100000F04CF90546706F810700F1D38000F0C3
:1002200045F9401B0228F6D9032034E16068B0F597
:10023000803F04D1306840F48030306011E0B0F588
:10024000A02F306806D140F480203060316841F43E
:10025000803105E020F480303060316821F4802165
:100260003160606858B100F021F9054630688103BB
:10027000A7D400F01BF9401B6528F7D3D4E700F0A2
:1002800015F90546306881039BD500F00FF9401B36
:100290006528F7D3C8E7E06870B10121396000F044
:1002A00005F905463068810700F1B88000F0FEF8D6
:1002B000401B0228F6D9B7E7386000F0F7F805468A
:1002C000316888079BD500F0F1F8401B0228F7D968
:1002D000AAE7086000F0EAF80546706F810771D55B
:1002E00000F0E4F8401B0228F7D99DE70528306F9D
:1002F00006D140F004003067306F40F0010005E0A7
:10030000400840003067306F20F00400306741F251
:100310008938A06868B100F0C9F88146306F81075C
:1003200000F1898000F0C2F8A0EB09004045F5D348
:100330007AE700F0BBF88146306F81077BD500F08B
:10034000B5F8A0EB09004045F6D36DE700F0AEF834
:10035000401B022840F2828066E700F0A7F8001BED
:10036000022840F293805FE70020386600F09EF894
:1003700004463068810140F18D8000F097F8001B41
:100380000228F6D950E701281AD07068E26900F413
:100390008001914202BF00F03F01226A91420FD1D9
:1003A00047F6C071626A0140914202BF00F44031D9
:1003B000A26A914202BF00F07060E16A884269D08F
:1003C000012068E0207841073AD5306C0025C10053
:1003D0000AD400950125316C41F080513164306CB4
:1003E00000F0805000900098DFF8BC80D8F8000042
:1003F000C1051BD4D8F8000040F48070C8F8000094
:1004000000F054F88146D8F80000C1050ED400F081
:100410004DF8A0EB09000228F5D905E730682169FD
:1004200020F0F80040EAC1003060E8E6A06801284A
:100430007FF45CAF60E71DB1306C20F08050306419
:10044000A06938B3B16801F00C0108299BD00228DB
:100450008AD10020386600F029F80546306881010D
:100460003FF574AFE269206A616A0243A06A4008FE
:1004700042EA8112401E42EA0042E06A42EA006219
:1004800072600121396600F011F80446306881017C
:100490007FF563AF0020BDE8F28300BF0038024063
:1004A00000004742800E474200700040014840680B
:1004B000704700BF000000202DE9F84F0D464FF0B7
:1004C00000086A490F22012304462E6803FA08F047
:1004D00000EA0609814540F0C0804FEA480C032637
:1004E00006FA0CF66FEA060E6E68012E18BF022E91
:1004F00003D0112E18BF122E11D1A668EF680EEA94
:10050000060607FA0CF73E43A660666826EA000076
:100510006E68C6F3001606FA08F630436060E068BD
:10052000AE680EEA000006FA0CF63043E0604FEACF
:1005300088006E68022E18BF122E12D14FEAD8061C
:1005400004EB860600F01C07D6F820A002FA07FB91
:100550002AEA0B0AD5F810B00BFA07F747EA0A07A0
:10056000376226680EEA06072E7906F0030606FAB9
:100570000CF63E4326606E68F6006ED500260096A7
:100580004FEA980C0E68DFF8E8E046F480460E600B
:1005900000F00C000E6806F480460096009E5EF89F
:1005A0002C7002FA00F627EA0606324FBC4208BF5A
:1005B000002722D0304FBC4208BF01271DD02F4F4B
:1005C000BC4208BF022718D02D4FBC4208BF0327EA
:1005D00013D02C4FBC4208BF04270ED02A4FBC4278
:1005E00008BF052709D0294FBC4208BF062704D001
:1005F000274FBC420CBF0727082707FA00F03043FB
:100600004EF82C006FEA090C224806680CEA060E28
:100610006E68F70348BF49EA0E0EC0F800E046686E
:100620000CEA060E6E68B70348BF49EA0E0EC0F822
:1006300004E086680CEA060E6E68F70248BF49EAD5
:100640000E0EC0F808E0C6680CEA060E6E68B60228
:1006500048BF49EA0E0EC0F80CE008F10108B8F1F5
:100660000F0F7FF632AFBDE8F18F00004438024033
:100670000838014000000240000402400008024027
:10068000000C02400010024000140240001802401A
:10069000001C0240003C014018B587B000F0CAF8C9
:1006A00000F06EF8002000905C4C5D48016841F05D
:1006B00020010160026802F02002009200220099ED
:1006C0000092036843F040030360016801F04001B9
:1006D000009100990092036843F0100303600168E1
:1006E00001F010010091009900921C21036843F071
:1006F00008030360006800F0080000900098684656
:1007000000F0B2F804224748826000220261826150
:1007100002624FF020414FF48052826201600F224A
:1007200000920021C160FF220292102141610F233B
:1007300010220193039304920021C1614162C162BE
:100740000163416381634164112300220593069292
:100750004460694600F0A8F808B100F069F84FF469
:10076000805200214FF0D04000F0C8F800204FF038
:10077000D04141F82000401CB0F5802FF9D3FEE7AE
:1007800080B592B006A8302100F06EF801A81421BF
:1007900000F06AF8002000902348016841F0805181
:1007A00001600021006800F08050009000981F4810
:1007B00000910221026842F4804202600122006836
:1007C00000F48040009000980691099210210A914F
:1007D000022200210C920D91082232210E920F91DB
:1007E000022204211092119106A8FFF7CDFC08B156
:1007F00000F01EF8022102910F204FF48051019069
:100800000022049103920592012101A800F080F8D2
:1008100008B100F00DF813B000BD0000040100A005
:100820003038024010000020403802400070004084
:1008300072B6FEE780B50B48016841F400710160B3
:10084000026842F480620260016841F480710160D4
:10085000032000F02AF9002000F070F900F08EF972
:10086000002002BD003C0240002200F0FFB930B47D
:10087000002513E050F8042BD30744BFA9F101036E
:100880009A18091F042942F8045BFAD213468C0710
:1008900044BF15809B1CC90748BF1D7050F8041B3E
:1008A0000029E7D130BC704770B504000D461646EC
:1008B00001D1012070BD04F14801487820B900221F
:1008C0000A70204600F074F9206804F1080100F075
:1008D000E7F9A2682068294600F00AFA236BA268AB
:1008E0006068314600F024FA2168A06851F82020A1
:1008F00042F0010241F82020002070BD10B50446EE
:1009000010460A460146204600F034FA204610BD43
:100910002DE9F04104000F4678D0404E306800F0D9
:100920000F00B84202D200F073F86FD120683C4D3E
:10093000810712D5400703D5A96841F4E051A960A9
:100940002078010703D5A86840F46040A860A96832
:10095000A06821F0F0010143A9602178C8074DD5B6
:100960006068012802D129688A0305E0022818BFBF
:10097000032803D129688A0103D447E029688A073C
:1009800044D5A968890840EA8100A860FFF78EFD78
:100990008046A868616800F00C00B0EB810F2DD094
:1009A000FFF784FDA0EB080041F289318842F0D3C3
:1009B000032021E02078410705D5AA68E06822F4E9
:1009C000E0520243AA602178080706D5A968206989
:1009D00021F4604141EAC001A96000F029F8AA6849
:1009E0001049114BC2F30312895CC84018600F48CC
:1009F000006800F0A3F80020BDE8F081306800F046
:100A00000F008742D6D200F003F8D3D00120F3E7DD
:100A10003770316801F00F01B9427047003C024065
:100A200000380240040F00080C00002008000020DD
:100A300030B5144C606800F00C00042802D008287F
:100A400002D01DE0104830BD22682068002341021A
:100A500002F03F0204D525680B49C5F3881003E076
:100A600020680A49C0F38810A1FB000100F0B6F924
:100A70002168C1F30141491C4900B0FBF1F030BDD0
:100A8000024830BD0438024040787D010024F40063
:100A90000901020002D4244881547047234B02F01C
:100AA0000F021A4402F8041C7047214B19684FF6D4
:100AB000FF020002114000F4E06008431D490843B2
:100AC0001860704738B51A4B1C68C4F30223C3F191
:100AD0000704052C28BF04241D1D072D34BF002347
:100AE000DB1E012505FA04F4641E2140994005FA35
:100AF00003F35B1E1A401143BDE83440C8E710B54C
:100B0000401EB0F1807F01D3012010BD0A4C60600F
:100B10000F214FF0FF30FFF7BBFF0021A16007203E
:100B20002060002010BD000000E400E018ED00E0AF
:100B30000CED00E00000FA0510E000E038B50D4DC6
:100B40000D4B2A7804464FF47A711868B1FBF2F223
:100B5000B0FBF2F0FFF7D3FF50B9102C08D20022FF
:100B600021464FF0FF30FFF7ADFFAC60002032BDF3
:100B7000012032BD000000200C00002081B00020C8
:100B8000009000223248416841F480414160416850
:100B900001F48041009100990092036843F0805372
:100BA0000360006800F080500090009801B070472A
:100BB00080B586B068461421FFF756FE25490868BF
:100BC000002836D101220A600590022222480168DD
:100BD00041F0010101604FF23F01006800F00100A7
:100BE000059005981D480091019201210291032270
:100BF0000C21049103926946FFF75EFC00F01BF89C
:100C000040F23F4000F01CF81548FFF755FC00F09B
:100C100012F84FF6837000F013F81248FFF74CFCFF
:100C200000F009F84FF6337000F00AF80E48FFF7AD
:100C300043FC07B000BD02210191012202927047DE
:100C40000321009003910C22049269467047000032
:100C50004038024060000020383802400014024052
:100C60000018024000100240000C024000B500BF16
:100C7000130096469446103928BFA0E80C50FAD8C5
:100C80005FEA417C28BF0CC048BF40F8042BC9076D
:100C900028BF20F8022B48BF00F8012B00BD000040
:100CA00070B58C680D6850F82560304B4A681E405E
:100CB0001643CB680A6926431E434B6916438A696B
:100CC0001E43CB6916430A6A1E434B6A16438A6A5F
:100CD0001E43CB6A1643CA6B096B1E4316430E4371
:100CE000082C08BF46F0400640F82560002070BD83
:100CF00070B5031D001D53F822408D690B684E68C6
:100D00001D438B6845EA0615CE6845EA03250B6945
:100D1000496945EA06455B1E45EA0355891E04F00C
:100D2000404445EA01652C4340F82240002070BD54
:100D300070B5B3F5804F13D150F822500C4C0B68AE
:100D40004E6825401D438B68CC68896945EA0615C5
:100D500045EA032545EA04450D4340F8225003E0E7
:100D60006FF0704340F82230002070BD8000F0FF2B
:100D70000000F0CF62F30F2262F31F42401810F020
:100D8000030308D0C91A1FD3DB0748BF00F8012DA1
:100D900028BF20F8022D130030B414461546103930
:100DA00028BF20E93C00FAD8490728BF20E90C00F9
:100DB00048BF40F8042D890028BF20F8022D48BF05
:100DC00000F8012D30BC7047C91818BF00F8012D7C
:100DD000CB0728BF00F8012D70470000D3BBD9B165
:100DE000B2F5803F5BD2022A1ED98C46B1FBF2F1EC
:100DF00002FB11C31B0443EA1043B3FBF2FC02FBEA
:100E00001C3380B240EA0343B3FBF2F002FB103222
:100E100040EA0C4000237047022A05D98446B0FB03
:100E2000F2F002FB10C270474AB105D100F0010296
:100E300049085FEA3000704700220023704700F045
:100E400051B80B000200002100207047F7D30022A8
:100E500000237047904271EB030CF2D370B5B1FAE6
:100E600081F4B3FA83F52C1BA340C4F1200532FAB8
:100E700005F63343A2405FF00046E64002E05B081F
:100E80005FEA3202841A71EB030524BF204629462B
:100E90007641F4D302000B003000002170BD70B524
:100EA000B1FA81F4B2FA82F5C4F120046419B4F104
:100EB0002006DAD3B2405FF00044F440002502E09F
:100EC00052085FEA3303C61A71EB020E24BF3046A4
:100ED000714664416D41F3D302000B0020002900EC
:100EE00070BD0000704700000448054A016841F4E5
:100EF000700101604FF000601060704788ED00E005
:100F000008ED00E000000000000000000102030402
:100F10000607080930B450F8041B79B10268436829
:100F200002440830DC0744BFA9F10104E31852F879
:100F3000045B43F8045B091FF9D1ECE730BC704750
:100F400010B5074979441831064C7C44163404E046
:100F50000A68081D114488470146A142F8D110BD16
:100F60002C0000004C0000004EF68851CEF200012B
:100F7000086840F470000860BFF34F8FBFF36F8FB5
:100F80004FF00070E1EE100A70470000E3F8FFFF39
:100F900054000000100000200000000079FFFFFF57
:100FA0001000000088000000000000200000000089
:100FB00000F00DF8002801D0FFF7C2FFAFF300806A
:100FC0000020AFF30080FFF767FB00F002F801207C
:100FD000704700F001B800000746384600F002F8FC
:100FE000FBE7000080B5AFF30080024A1100182033
:100FF000ABBEFBE726000200FEE7FEE7FEE7FEE7EA
:10100000FEE770477047704700F000B8024841683B
:1010100002788A184260704700000020014880472B
:1010200001480047E90E00083D10000801000000DB
:1010300000000000100000000024F400AFF3008066
:10104000FFF792FFFFF7B4FFFFF7FEBFFFF7FEBF0A
:10105000FFF7FEBFFFF7FEBFFFF7FEBFFFF7FEBFC4
:10106000FFF7FEBFFFF7FEBFFFF7FEBFFFF7FEBFB4
:10107000FFF7FEBFFFF7FEBFFFF7FEBFFFF7FEBFA4
:10108000FFF7FEBFFFF7FEBFFFF7FEBFFFF7FEBF94
:10109000FFF7FEBFFFF7FEBFFFF7FEBFFFF7FEBF84
:1010A000FFF7FEBFFFF7FEBFFFF7FEBFFFF7FEBF74
:1010B000FFF7FEBFFFF7FEBFFFF7FEBFFFF7FEBF64
:1010C000FFF7FEBFFFF7FEBFFFF7FEBFFFF7FEBF54
:1010D000FFF7FEBFFFF7FEBFFFF7FEBFFFF7FEBF44
:1010E000FFF7FEBFFFF7FEBFFFF7FEBFFFF7FEBF34
:1010F000FFF7FEBFFFF7FEBFFFF7FEBFFFF7FEBF24
:10110000FFF7FEBFFFF7FEBFFFF7FEBFFFF7FEBF13
:10111000FFF7FEBFFFF7FEBFFFF7FEBFFFF7FEBF03
:10112000FFF7FEBFFFF7FEBFFFF7FEBFFFF7FEBFF3
:10113000FFF7FEBFFFF7FEBFFFF7FEBFFFF7FEBFE3
:10114000FFF7FEBFFFF7FEBFFFF7FEBFFFF7FEBFD3
:10115000FFF7FEBFFFF7FEBFFFF7FEBFFFF7FEBFC3
:10116000FFF7FEBFFFF7FEBFFFF7FEBFFFF7FEBFB3
:10117000FFF7FEBFFFF7FEBFFFF7FEBFFFF7FEBFA3
:0C118000FFF7FEBFFFF7FEBFFFF7FEBF4A
:040000050800103DA2
:00000001FF
